:1000000009C00EC00DC00CC00BC00AC009C008C09A
:1000100007C006C011241FBECFE9CDBF29D033C011
:10002000EFCFB89A8FB581608FBD8FB58D7F8FBDB3
:1000300083B78D7F83BF8FB580688FBD8FB58F7B72
:100040008FBD83B7816083BF83B78D7F83BF83B745
:100050008B7F83BF0895399A3D9A86B1836086B9B4
:10006000379A0895369A3699FECF85B190E0089573
:1000700080E886BD16BCD5DFEEDF12BE85E086BF08
:0A00800080E090E00895F894FFCFAF
:00000001FF
