:1000000009C021C036C01FC01EC01DC01CC01BC0FF
:100010001AC019C011241FBECFE9CDBF10E0A0E661
:10002000B0E0E0EBF2E002C005900D92A437B1071A
:10003000D9F720E0A4E7B0E001C01D92A837B207CD
:10004000E1F7FFD033C1DCCF80E0BED080937700F2
:1000500081E0BAD0809376002091770030E0A9014A
:10006000481B5109CA016AE070E0F9D06093600052
:1000700008951F920F920FB60F9211242F933F9362
:100080004F935F936F937F938F939F93AF93BF93A0
:10009000EF93FF939091750081E0911180E0809340
:1000A000750080917500811117C0809174008111D5
:1000B00006C090D0682F80E07FD091D005C08AD054
:1000C000682F81E079D0A4D0BFDF9091740081E0E7
:1000D000911180E080937400FF91EF91BF91AF91F7
:1000E0009F918F917F916F915F914F913F912F9150
:1000F0000F900FBE0F901F901895BB98C39A8BB7A7
:1001000080628BBF88E085BB8FB780688FBF089502
:10011000B89A8FB581608FBD8FB58D7F8FBD83B746
:100120008D7F83BF8FB580688FBD8FB58F7B8FBD6F
:1001300083B7816083BF83B78D7F83BF83B78B7F96
:1001400083BF0895399A3D9A86B1836086B9379AFC
:10015000089520917700821768F430E0A901481BC8
:100160005109CA016091600070E079D0693018F0DF
:1001700068E001C060E0E62FF0E0E659FF4F8081C3
:10018000089596B7891750F496B7915096BFEFED42
:10019000FEE23197F1F700C00000F3CF96B7981751
:1001A00050F496B79F5F96BFEFEDFEE23197F1F7FF
:1001B00000C00000F3CF0895E199FECF1CBA8EBBBA
:1001C0006DBBE29AE19A0895E199FECF8EBBE09A69
:1001D0008DB30895369A3699FECF85B1089587E09C
:1001E0009FEF96BF2FEF3BED45E021503040404060
:1001F000E1F700C0000016BE2FEF3BED45E02150B7
:1002000030404040E1F700C00000815051F70895B0
:1002100085E09FEF96BF2FEF31E844E12150304059
:100220004040E1F700C0000016BE2FEF37EB4BE077
:10023000215030404040E1F700C00000815051F7AC
:10024000089580E886BD16BC63DF7CDF56DF12BEF2
:1002500016BEFADEBFDF60E07CDF86BFFBCF97FB18
:10026000072E16F4009406D077FD08D00BD007FCBB
:1002700005D03EF4909581959F4F089570956195B6
:100280007F4F0895AA1BBB1B51E107C0AA1FBB1FCC
:10029000A617B70710F0A61BB70B881F991F5A9512
:1002A000A9F780959095BC01CD010895F894FFCFF2
:1002B00001CDCDCDCDE6E6FFFFFF004D7192B3D469
:0402C000E6F3FF0062
:00000001FF
